{
  "contractName": "points",
  "abi": [
    {
      "inputs": [],
      "payable": false,
      "stateMutability": "nonpayable",
      "type": "constructor"
    },
    {
      "constant": true,
      "inputs": [],
      "name": "creativity",
      "outputs": [
        {
          "internalType": "uint256",
          "name": "",
          "type": "uint256"
        }
      ],
      "payable": false,
      "stateMutability": "view",
      "type": "function"
    },
    {
      "constant": true,
      "inputs": [
        {
          "internalType": "address",
          "name": "",
          "type": "address"
        }
      ],
      "name": "friends",
      "outputs": [
        {
          "internalType": "uint256",
          "name": "rem_points",
          "type": "uint256"
        },
        {
          "internalType": "bool",
          "name": "exist",
          "type": "bool"
        }
      ],
      "payable": false,
      "stateMutability": "view",
      "type": "function"
    },
    {
      "constant": true,
      "inputs": [],
      "name": "hardworker",
      "outputs": [
        {
          "internalType": "uint256",
          "name": "",
          "type": "uint256"
        }
      ],
      "payable": false,
      "stateMutability": "view",
      "type": "function"
    },
    {
      "constant": true,
      "inputs": [],
      "name": "intelligent",
      "outputs": [
        {
          "internalType": "uint256",
          "name": "",
          "type": "uint256"
        }
      ],
      "payable": false,
      "stateMutability": "view",
      "type": "function"
    },
    {
      "constant": true,
      "inputs": [],
      "name": "get_creativity",
      "outputs": [
        {
          "internalType": "uint256",
          "name": "",
          "type": "uint256"
        }
      ],
      "payable": false,
      "stateMutability": "view",
      "type": "function"
    },
    {
      "constant": true,
      "inputs": [
        {
          "internalType": "address",
          "name": "_a",
          "type": "address"
        }
      ],
      "name": "balance_of",
      "outputs": [
        {
          "internalType": "bool",
          "name": "",
          "type": "bool"
        }
      ],
      "payable": false,
      "stateMutability": "view",
      "type": "function"
    },
    {
      "constant": false,
      "inputs": [],
      "name": "vote_creativity",
      "outputs": [],
      "payable": false,
      "stateMutability": "nonpayable",
      "type": "function"
    },
    {
      "constant": false,
      "inputs": [],
      "name": "vote_hardworker",
      "outputs": [],
      "payable": false,
      "stateMutability": "nonpayable",
      "type": "function"
    },
    {
      "constant": false,
      "inputs": [],
      "name": "vote_intelligent",
      "outputs": [],
      "payable": false,
      "stateMutability": "nonpayable",
      "type": "function"
    }
  ],
  "bytecode": "0x608060405234801561001057600080fd5b506000808190555060006001819055506000600281905550610617806100376000396000f3fe608060405234801561001057600080fd5b50600436106100935760003560e01c80636f7db075116100665780636f7db0751461012d578063ae9f431f1461014b578063b144adfb14610169578063c2603c88146101c5578063f7d8a085146101e357610093565b806303d2a52814610098578063060fe1a3146100a25780630c859f29146100ac5780631ddabf7a146100ca575b600080fd5b6100a06101ed565b005b6100aa6102b7565b005b6100b4610381565b6040518082815260200191505060405180910390f35b61010c600480360360208110156100e057600080fd5b81019080803573ffffffffffffffffffffffffffffffffffffffff16906020019092919050505061038a565b60405180838152602001821515151581526020019250505060405180910390f35b6101356103bb565b6040518082815260200191505060405180910390f35b6101536103c1565b6040518082815260200191505060405180910390f35b6101ab6004803603602081101561017f57600080fd5b81019080803573ffffffffffffffffffffffffffffffffffffffff1690602001909291905050506103c7565b604051808215151515815260200191505060405180910390f35b6101cd610415565b6040518082815260200191505060405180910390f35b6101eb61041b565b005b6101f6336104e4565b610204576102033361053d565b5b6000600360003373ffffffffffffffffffffffffffffffffffffffff1673ffffffffffffffffffffffffffffffffffffffff1681526020019081526020016000206000015411156102b557600160008154809291906001019190505550600360003373ffffffffffffffffffffffffffffffffffffffff1673ffffffffffffffffffffffffffffffffffffffff16815260200190815260200160002060000160008154809291906001900391905055505b565b6102c0336104e4565b6102ce576102cd3361053d565b5b6000600360003373ffffffffffffffffffffffffffffffffffffffff1673ffffffffffffffffffffffffffffffffffffffff16815260200190815260200160002060000154111561037f57600260008154809291906001019190505550600360003373ffffffffffffffffffffffffffffffffffffffff1673ffffffffffffffffffffffffffffffffffffffff16815260200190815260200160002060000160008154809291906001900391905055505b565b60008054905090565b60036020528060005260406000206000915090508060000154908060010160009054906101000a900460ff16905082565b60025481565b60015481565b600080600360008473ffffffffffffffffffffffffffffffffffffffff1673ffffffffffffffffffffffffffffffffffffffff16815260200190815260200160002060000154119050919050565b60005481565b610424336104e4565b610432576104313361053d565b5b6000600360003373ffffffffffffffffffffffffffffffffffffffff1673ffffffffffffffffffffffffffffffffffffffff1681526020019081526020016000206000015411156104e2576000808154809291906001019190505550600360003373ffffffffffffffffffffffffffffffffffffffff1673ffffffffffffffffffffffffffffffffffffffff16815260200190815260200160002060000160008154809291906001900391905055505b565b6000600360008373ffffffffffffffffffffffffffffffffffffffff1673ffffffffffffffffffffffffffffffffffffffff16815260200190815260200160002060010160009054906101000a900460ff169050919050565b60038060008373ffffffffffffffffffffffffffffffffffffffff1673ffffffffffffffffffffffffffffffffffffffff168152602001908152602001600020600001819055506001600360008373ffffffffffffffffffffffffffffffffffffffff1673ffffffffffffffffffffffffffffffffffffffff16815260200190815260200160002060010160006101000a81548160ff0219169083151502179055505056fea265627a7a7231582063fb02ebf2a0b0d94ced64274f01e30dd48a0ee7745494a51dafadb6d7e0ac0e64736f6c63430005100032",
  "source": "pragma solidity ^0.5.16;\r\n\r\ncontract points {\r\n    /*There is no total supply for points(tokens) like in ERC20 standard as a startup will\r\n     put no limit to gratitude points that it may take. Therefore ERC20 was not used.\r\n\r\n     **NOTE: There is a limit of 3 points for each friend to use on gratitude points, but no limit for number of users.\r\n     To illustrate any accont can spend up to 3 points on any gratitude attribute and this point will be recorded on blockchain\r\n     but if this account then tries to spend more than 3 points and button pressed will not be recorded\r\n    */\r\n    uint public creativity; //creativity points\r\n    uint public hardworker; //hardworker attribute points\r\n    uint public intelligent; //intelligence points\r\n\r\n    struct friend{\r\n        uint rem_points;\r\n        bool exist;\r\n    }\r\n\r\n    mapping(address => friend) public friends;\r\n\r\n    constructor() public {\r\n        creativity = 0;\r\n        hardworker = 0;\r\n        intelligent = 0;\r\n    }\r\n\r\n    function get_creativity () public view returns(uint) { //getter\r\n        return creativity;\r\n    }\r\n\r\n    function check_friend (address _a) private view returns(bool) { //Check if the msg.sender already exists as a friend\r\n        return friends[_a].exist;\r\n    }\r\n\r\n    function create_friend (address _a) private {// create a new friend\r\n        friends[_a].rem_points = 3;\r\n        friends[_a].exist = true;\r\n    }\r\n\r\n    function balance_of (address _a) public view returns(bool) { //Checks if balance is more than 0\r\n        return friends[_a].rem_points > 0;\r\n    }\r\n\r\n\r\n    //To vote for creativity\r\n    function vote_creativity () public {\r\n        if(!check_friend(msg.sender)){\r\n            create_friend(msg.sender);\r\n        }\r\n        if(friends[msg.sender].rem_points>0){\r\n            creativity++;\r\n            friends[msg.sender].rem_points--;\r\n        }\r\n    }\r\n    //To vote for hardworker\r\n    function vote_hardworker () public {\r\n        if(!check_friend(msg.sender)){\r\n            create_friend(msg.sender);\r\n        }\r\n        if(friends[msg.sender].rem_points>0){\r\n            hardworker++;\r\n            friends[msg.sender].rem_points--;\r\n        }\r\n    }\r\n    //To vote for intelligent\r\n    function vote_intelligent () public {\r\n        if(!check_friend(msg.sender)){\r\n            create_friend(msg.sender);\r\n        }\r\n        if(friends[msg.sender].rem_points>0){\r\n            intelligent++;\r\n            friends[msg.sender].rem_points--;\r\n        }\r\n    }\r\n\r\n\r\n}\r\n",
  "sourcePath": "C:/Users/Maria/Desktop/castpone project/contracts/points.sol",
  "compiler": {
    "name": "solc",
    "version": "0.5.16+commit.9c3226ce.Emscripten.clang"
  },
  "schemaVersion": "3.2.3",
  "updatedAt": "2020-08-08T18:43:25.192Z",
  "networkType": "ethereum",
  "devdoc": {
    "methods": {}
  },
  "userdoc": {
    "methods": {}
  }
}